:03000000020BA14F
:0C0BA100787FE4F6D8FD75811C020A1B69
:10080000546167204E6F2E200000000000000000A1
:100810002F00000007000700147F147F14242A7F94
:100820002A12C4C810264636495522500005030036
:1008300000001C2241000041221C0014083E081444
:1008400008083E080800005030001010101010007A
:100850006060000020100804023E5149453E0042FD
:100860007F400042615149462141454B31181412E5
:100870007F1027454545393C4A49493001710905F2
:10088000033649494936064949291E0036360000D3
:1008900000563600000814224100141414141400E9
:1008A000412214080201510906324959513E7E1174
:1008B00011117E7F494949363E414141227F4141E4
:1008C000221C7F494949417F090909013E414949A3
:1008D0007A7F0808087F00417F41002040413F01A6
:1008E0007F081422417F404040407F020C027F7FFE
:1008F0000408107F3E4141413E7F090909063E41FF
:1009000051215E7F09192946464949493101017F34
:1009100001013F4040403F1F2040201F3F403840E2
:100920003F63140814630708700807615149454381
:10093000007F414100552A552A550041417F00045E
:1009400002010204404040404000010204002054E3
:100950005454787F4844443838444444203844440C
:10096000487F3854545418087E0901020C525252E0
:100970003E7F0804047800447D40002040443D0050
:100980007F1028440000417F40007C041804787CDC
:100990000804047838444444387C141414080814B7
:1009A00014187C7C080404084854545420043F4420
:1009B00040203C4040207C1C2040201C3C403040DB
:1009C0003C44281028440C5050503C4464544C443F
:0509D00000083E41009B
:0C0BAD00758920758DFD759850D28E2240
:080BCD008F993099FDC29922B5
:070BD5003098FDC298AF99B2
:010BDC0022F6
:060B37008B1A8A1B891CC9
:100B3D00E4FDFCAB1AAA1BA91C8D828C831209EE55
:0D0B4D00FF600A120BCD0DBD00010C80E60B
:010B5A002278
:100B5B00E4FEC281EF30E704D2828002C282D281EE
:080B6B00EF25E0FF0EBE08EAD1
:010B7300225F
:0A0BB900D283C284120B5BD28422A7
:0A0BC300C283C284120B5BD28422AD
:100B8D00AC07ED54074440FF120BC3EC547F448077
:040B9D00FF020BC385
:100B7400E4FDFF120B8D7DF87C01E4FF120BB9ED4F
:080B84001D70011CED4C70F224
:010B8C002246
:100A9500D285D2847F21120BC37FB2120BC37F1381
:100AA500120BC37F20120BC37F09120BC3120B74E9
:100AB5007F08120BC37F0C120BC3E4FDFF020B8DE5
:100AC500AE07EED39406501EEEC394014018ED9484
:100AD500014013EDD3940E500DED1475F006A4FFEF
:070AE500EE14FD120B8D223F
:020A5900AD07E7
:100A5B00EDC394204006EDD3947C40027D5CE4FC16
:100A6B0075F005EDA42469F582E5F03407F583E50F
:100A7B00822CF582E43583F583E49325E0FF120B9A
:0A0A8B00B90CBC05DBE4FF020BB957
:100B12008B178A188919AB17AA18A9191209D56057
:100B2200130519E5197002051814F91209D5FF12F7
:050B32000A5980E222D7
:100AEC00E4FDFCC3ED9FEE6480F8EC648098501537
:100AFC00E4FBFA0BBB00010ABA03F8BBE8F50DBD29
:050B0C0000010C80DE79
:010B110022C1
:100A1B00120BAD120A957D017F01120AC57BFF7A7D
:100A2B00087900120B12E4FDFF120B8DE4FDFC1292
:100A3B000BD574082DF8A6070DBD00010CED640C49
:0E0A4B004C70EC7B007A007908120B1280DEF2
:1009D500BB010689828A83E0225002E722BBFE0220
:0909E500E32289828A83E4932253
:1009EE00BB010CE58229F582E5833AF583E02250BE
:1009FE0006E92582F8E622BBFE06E92582F8E22208
:0D0A0E00E58229F582E5833AF583E4932221
:00000001FF
